:100000000C9472000C948B000C948B000C948B005D
:100010000C948B000C948B000C948B000C948B0034
:100020000C948B000C948B000C948B000C948B0024
:100030000C948B000C948B000C948B000C948B0014
:100040000C948B000C948B000C948B000C948B0004
:100050000C948B000C948B000C948B000C948B00F4
:100060000C948B000C948B000C948B000C948B00E4
:100070000C948B000C948B000C948B000C948B00D4
:100080000C948B000C948B000C948B000C948B00C4
:100090000C948B000C948B000C948B000C948B00B4
:1000A0000C948B000C948B000C948B000C948B00A4
:1000B0000C948B000C948B000C948B000C948B0094
:1000C0000C948B000C948B000C948B000C948B0084
:1000D0000C948B000C948B000C948B000C948B0074
:1000E0000C948B0011241FBECFEFD1E2DEBFCDBF39
:1000F00000E00CBF12E0A0E0B2E0ECE5F3E000E0CD
:100100000BBF02C007900D92AA31B107D9F70E9428
:100110009B010C94AC010C94000080E884B988E049
:100120008DB988E48093010108952F9A0895739AF8
:10013000089573980895E2E0F1E0808188608083FB
:100140000895E2E0F1E08081877F80830895E2E016
:10015000F1E08081806480830895E2E0F1E08081B5
:100160008F7B80830895CF93C82F80FF03C00E94A8
:10017000970002C00E949900C1FF03C00E94A7001F
:1001800002C00E94A100C2FF03C0CF910C949B004B
:10019000CF910C94A1002F980895E2E0F1E08081C6
:1001A0008F7D80830895089580FF02C0A59A01C0C5
:1001B000A59881FF02C0739A01C0739890910201C3
:1001C00082FF02C0986001C0977F9093020183FF75
:1001D00004C080910201806103C0809102018F7E82
:1001E000809302010895811102C00C94CD0080918A
:1001F00002018062809302010895E2E0F1E08081D3
:100200008F7B808380818064808380818F7B8083EB
:1002100085ED8A95F1F700000895CF93C82F0E94CD
:10022000CD008C2F82958F700E94D4000E94FD001B
:100230008C2F0E94D400CF910C94FD00CF93C82F37
:1002400081E00E94F3008C2F859585958595859595
:100250000E94D4000E94FD008C2F0E94D400CF91F8
:100260000C94FD00CF93DF93EC018991882319F062
:100270000E941E01FACFDF91CF91089581E00E9484
:100280000D018FE39FE10197F1F700C00000089591
:1002900080E184B92C9AE1E0F1E080818867808375
:1002A0006B9A9D9A0E94CD0083E00E94D4000E9428
:1002B000FD008FE090E40197F1F700C000000E947C
:1002C000CD0083E00E94D4000E94FD008FE891E001
:1002D0000197F1F700C000000E94CD0083E00E946A
:1002E000D4000E94FD000E94CD0082E00E94D40054
:1002F0000E94FD008CE20E940D018FE00E940D0122
:1003000086E00E940D010C943E0182E00C940D01E8
:100310008130910511F40C948501029719F480EC59
:100320000C940D010895892B11F080EC01C080E838
:10033000860F0C940D010E94480180E092E00E941B
:10034000320162E070E081E090E00E94930184E17C
:0C03500092E00E943201FFCFF894FFCF32
:10035C005465737465616161616161616161616161
:0A036C00616161003132333400009A
:00000001FF
